{
  "_format": "hh-sol-artifact-1",
  "contractName": "Tip",
  "sourceName": "contracts/Tip.sol",
  "abi": [
    {
      "inputs": [],
      "stateMutability": "nonpayable",
      "type": "constructor"
    },
    {
      "inputs": [],
      "name": "InsufficientBalance",
      "type": "error"
    },
    {
      "inputs": [],
      "name": "InvalidRecipient",
      "type": "error"
    },
    {
      "inputs": [],
      "name": "InvalidTipAmount",
      "type": "error"
    },
    {
      "inputs": [],
      "name": "OnlyPlatformOwner",
      "type": "error"
    },
    {
      "inputs": [],
      "name": "TransferFailed",
      "type": "error"
    },
    {
      "anonymous": false,
      "inputs": [
        {
          "indexed": true,
          "internalType": "address",
          "name": "owner",
          "type": "address"
        },
        {
          "indexed": false,
          "internalType": "uint256",
          "name": "amount",
          "type": "uint256"
        },
        {
          "indexed": false,
          "internalType": "uint256",
          "name": "timestamp",
          "type": "uint256"
        }
      ],
      "name": "PlatformFeeWithdrawn",
      "type": "event"
    },
    {
      "anonymous": false,
      "inputs": [
        {
          "indexed": true,
          "internalType": "address",
          "name": "from",
          "type": "address"
        },
        {
          "indexed": true,
          "internalType": "address",
          "name": "to",
          "type": "address"
        },
        {
          "indexed": false,
          "internalType": "uint256",
          "name": "tipAmount",
          "type": "uint256"
        },
        {
          "indexed": false,
          "internalType": "uint256",
          "name": "platformFee",
          "type": "uint256"
        },
        {
          "indexed": false,
          "internalType": "uint256",
          "name": "timestamp",
          "type": "uint256"
        }
      ],
      "name": "TipSent",
      "type": "event"
    },
    {
      "inputs": [],
      "name": "BASIS_POINTS",
      "outputs": [
        {
          "internalType": "uint256",
          "name": "",
          "type": "uint256"
        }
      ],
      "stateMutability": "view",
      "type": "function"
    },
    {
      "inputs": [],
      "name": "PLATFORM_FEE_BPS",
      "outputs": [
        {
          "internalType": "uint256",
          "name": "",
          "type": "uint256"
        }
      ],
      "stateMutability": "view",
      "type": "function"
    },
    {
      "inputs": [
        {
          "internalType": "uint256",
          "name": "amount",
          "type": "uint256"
        }
      ],
      "name": "calculateFee",
      "outputs": [
        {
          "internalType": "uint256",
          "name": "fee",
          "type": "uint256"
        },
        {
          "internalType": "uint256",
          "name": "netAmount",
          "type": "uint256"
        }
      ],
      "stateMutability": "pure",
      "type": "function"
    },
    {
      "inputs": [],
      "name": "getContractBalance",
      "outputs": [
        {
          "internalType": "uint256",
          "name": "",
          "type": "uint256"
        }
      ],
      "stateMutability": "view",
      "type": "function"
    },
    {
      "inputs": [],
      "name": "getPlatformFeePercentage",
      "outputs": [
        {
          "internalType": "uint256",
          "name": "",
          "type": "uint256"
        }
      ],
      "stateMutability": "pure",
      "type": "function"
    },
    {
      "inputs": [],
      "name": "getTotalPlatformFees",
      "outputs": [
        {
          "internalType": "uint256",
          "name": "",
          "type": "uint256"
        }
      ],
      "stateMutability": "view",
      "type": "function"
    },
    {
      "inputs": [
        {
          "internalType": "address",
          "name": "user",
          "type": "address"
        }
      ],
      "name": "getTotalTipsReceived",
      "outputs": [
        {
          "internalType": "uint256",
          "name": "",
          "type": "uint256"
        }
      ],
      "stateMutability": "view",
      "type": "function"
    },
    {
      "inputs": [
        {
          "internalType": "address",
          "name": "user",
          "type": "address"
        }
      ],
      "name": "getTotalTipsSent",
      "outputs": [
        {
          "internalType": "uint256",
          "name": "",
          "type": "uint256"
        }
      ],
      "stateMutability": "view",
      "type": "function"
    },
    {
      "inputs": [
        {
          "internalType": "address",
          "name": "user",
          "type": "address"
        }
      ],
      "name": "getUserTipStats",
      "outputs": [
        {
          "internalType": "uint256",
          "name": "received",
          "type": "uint256"
        },
        {
          "internalType": "uint256",
          "name": "sent",
          "type": "uint256"
        }
      ],
      "stateMutability": "view",
      "type": "function"
    },
    {
      "inputs": [],
      "name": "platformOwner",
      "outputs": [
        {
          "internalType": "address",
          "name": "",
          "type": "address"
        }
      ],
      "stateMutability": "view",
      "type": "function"
    },
    {
      "inputs": [
        {
          "internalType": "address",
          "name": "recipient",
          "type": "address"
        }
      ],
      "name": "sendTip",
      "outputs": [],
      "stateMutability": "payable",
      "type": "function"
    },
    {
      "inputs": [],
      "name": "totalPlatformFees",
      "outputs": [
        {
          "internalType": "uint256",
          "name": "",
          "type": "uint256"
        }
      ],
      "stateMutability": "view",
      "type": "function"
    },
    {
      "inputs": [
        {
          "internalType": "address",
          "name": "",
          "type": "address"
        }
      ],
      "name": "totalTipsReceived",
      "outputs": [
        {
          "internalType": "uint256",
          "name": "",
          "type": "uint256"
        }
      ],
      "stateMutability": "view",
      "type": "function"
    },
    {
      "inputs": [
        {
          "internalType": "address",
          "name": "",
          "type": "address"
        }
      ],
      "name": "totalTipsSent",
      "outputs": [
        {
          "internalType": "uint256",
          "name": "",
          "type": "uint256"
        }
      ],
      "stateMutability": "view",
      "type": "function"
    },
    {
      "inputs": [
        {
          "internalType": "address",
          "name": "newOwner",
          "type": "address"
        }
      ],
      "name": "transferPlatformOwnership",
      "outputs": [],
      "stateMutability": "nonpayable",
      "type": "function"
    },
    {
      "inputs": [],
      "name": "withdrawPlatformFees",
      "outputs": [],
      "stateMutability": "nonpayable",
      "type": "function"
    },
    {
      "stateMutability": "payable",
      "type": "receive"
    }
  ],
  "bytecode": "0x608060405234801561001057600080fd5b50600080546001600160a01b03191633179055610864806100326000396000f3fe6080604052600436106100f75760003560e01c80638acf90dd1161008a578063cd34d1e911610059578063cd34d1e914610349578063d0b7830b14610376578063d3631fa51461038b578063e1f1c4a7146103a157600080fd5b80638acf90dd1461029157806399a5d747146102be5780639cbe66a8146102f3578063a4e81be01461033657600080fd5b8063539aa77f116100c6578063539aa77f1461021f5780636f9fb98a146102345780637a3a27ea146102475780638765d1fd1461025b57600080fd5b8063046c15531461016757806318a2820f1461018957806331521d57146101d25780634df8ccb1146101e757600080fd5b36610162576040517f08c379a000000000000000000000000000000000000000000000000000000000815260206004820152601460248201527f5573652073656e645469702066756e6374696f6e000000000000000000000000604482015260640160405180910390fd5b600080fd5b34801561017357600080fd5b5061018761018236600461076a565b6103b7565b005b34801561019557600080fd5b506101bf6101a436600461076a565b6001600160a01b031660009081526002602052604090205490565b6040519081526020015b60405180910390f35b3480156101de57600080fd5b506003546101bf565b3480156101f357600080fd5b50600054610207906001600160a01b031681565b6040516001600160a01b0390911681526020016101c9565b34801561022b57600080fd5b506101bf606481565b34801561024057600080fd5b50476101bf565b34801561025357600080fd5b5060646101bf565b34801561026757600080fd5b506101bf61027636600461076a565b6001600160a01b031660009081526001602052604090205490565b34801561029d57600080fd5b506101bf6102ac36600461076a565b60026020526000908152604090205481565b3480156102ca57600080fd5b506102de6102d936600461079a565b610443565b604080519283526020830191909152016101c9565b3480156102ff57600080fd5b506102de61030e36600461076a565b6001600160a01b03166000908152600160209081526040808320546002909252909120549091565b61018761034436600461076a565b610471565b34801561035557600080fd5b506101bf61036436600461076a565b60016020526000908152604090205481565b34801561038257600080fd5b5061018761063d565b34801561039757600080fd5b506101bf60035481565b3480156103ad57600080fd5b506101bf61271081565b6000546001600160a01b031633146103e257604051633108f42160e21b815260040160405180910390fd5b6001600160a01b03811661040957604051634e46966960e11b815260040160405180910390fd5b600080547fffffffffffffffffffffffff0000000000000000000000000000000000000000166001600160a01b0392909216919091179055565b6000806127106104546064856107c9565b61045e91906107e6565b915061046a8284610808565b9050915091565b346000036104ab576040517f692a0ce300000000000000000000000000000000000000000000000000000000815260040160405180910390fd5b6001600160a01b0381166104d257604051634e46966960e11b815260040160405180910390fd5b336001600160a01b038216036104fb57604051634e46966960e11b815260040160405180910390fd5b600061271061050b6064346107c9565b61051591906107e6565b905060006105238234610808565b6001600160a01b03841660009081526001602052604081208054929350839290919061055090849061081b565b9091555050336000908152600260205260408120805483929061057490849061081b565b90915550506040516000906001600160a01b0385169083908381818185875af1925050503d80600081146105c4576040519150601f19603f3d011682016040523d82523d6000602084013e6105c9565b606091505b50509050806105eb576040516312171d8360e31b815260040160405180910390fd5b6040805183815260208101859052428183015290516001600160a01b0386169133917f92dd7d70b0482eb78730fdd0b6328504b09fd626accdc46316157d94ae8743c29181900360600190a350505050565b6000546001600160a01b0316331461066857604051633108f42160e21b815260040160405180910390fd5b60035460008190036106a6576040517ff4d678b800000000000000000000000000000000000000000000000000000000815260040160405180910390fd5b6000600381905580546040516001600160a01b039091169083908381818185875af1925050503d80600081146106f8576040519150601f19603f3d011682016040523d82523d6000602084013e6106fd565b606091505b505090508061071f576040516312171d8360e31b815260040160405180910390fd5b600054604080518481524260208201526001600160a01b03909216917fd34af39c64d5ed6bd12db9a9ba17a8ce5a6f1fa6dfd5036565f0b26696ee4b5f910160405180910390a25050565b60006020828403121561077c57600080fd5b81356001600160a01b038116811461079357600080fd5b9392505050565b6000602082840312156107ac57600080fd5b5035919050565b634e487b7160e01b600052601160045260246000fd5b80820281158282048414176107e0576107e06107b3565b92915050565b60008261080357634e487b7160e01b600052601260045260246000fd5b500490565b818103818111156107e0576107e06107b3565b808201808211156107e0576107e06107b356fea264697066735822122044e4ea502e7607e657b98ef5813fcef8e58b497d7633daeb5ba9dd5c3471ba2f64736f6c63430008140033",
  "linkReferences": {},
  "deployedLinkReferences": {}
}